:020000040000FA
:1000000098020020650100006F01000061050000FA
:1000100000000000000000000000000000000000E0
:10002000000000000000000000000000730100005C
:1000300000000000000000007501000049080000F9
:100040007901000079010000790100000000000042
:100050000000000000000000790100000000000026
:100060000000000000000000650500000000000026
:100070007901000079010000790100007903000096
:10008000ED03000079010000790100007901000012
:100090007901000079010000790100007901000078
:1000A00079010000A50A0000790100007901000033
:1000B000F1070000E5070000D9070000CD070000A8
:1000C00000F002F800F03EF812A030C808382418FA
:1000D0002D18AC4201D100F035F80FCCA246AB464A
:1000E0000CA730CF2D1B083F3F197C427F1E544484
:1000F0002D090426F441641EAC4201D300F022F81D
:100100000126334200D0FB1A3343984754465D46DC
:10011000DFE7000014140000241400007047000002
:100120000023002400250026103A01D378C1FBD813
:10013000520700D330C100D50B6070471FB51FBDFB
:1001400010B510BD00F0E5F81146FFF7F7FF00F01D
:10015000E3FF00F0FDF803B4FFF7F2FF03BC00F08B
:1001600003F9000008480949016009480047FEE713
:10017000FEE7FEE7FEE7FEE7FEE70000054806496A
:10018000044A064B70470000500006400000A5A539
:10019000C100000098000020980200209800002074
:1001A000002203098B422CD3030A8B4211D3002374
:1001B0009C464EE003460B433CD4002243088B424E
:1001C00031D303098B421CD3030A8B4201D39446DB
:1001D0003FE0C3098B4201D3CB01C01A52418309CE
:1001E0008B4201D38B01C01A524143098B4201D388
:1001F0004B01C01A524103098B4201D30B01C01AB3
:100200005241C3088B4201D3CB00C01A524183082C
:100210008B4201D38B00C01A524143088B4201D359
:100220004B00C01A5241411A00D2014652411046B9
:1002300070475DE0CA0F00D04942031000D340422E
:1002400053409C46002203098B422DD3030A8B4264
:1002500012D38901FC2212BA030A8B420CD3890102
:1002600092118B4208D3890192118B4204D38901E8
:100270003AD0921100E08909C3098B4201D3CB0126
:10028000C01A524183098B4201D38B01C01A5241DB
:1002900043098B4201D34B01C01A524103098B42DF
:1002A00001D30B01C01A5241C3088B4201D3CB00CA
:1002B000C01A524183088B4201D38B00C01A5241AD
:1002C000D9D243088B4201D34B00C01A5241411A84
:1002D00000D201465241104663465B1001D34042B2
:1002E000002B00D54942704763465B1000D3404263
:1002F00001B50549002802DC491C084000E0084619
:10030000C046C04602BD00BFFFFFFF7F7047704779
:100310007047754600F024F8AE460500694653461E
:10032000C008C000854618B020B5FFF727FF60BCA5
:10033000B64600260027C0C5C0C5C0C5C0C5C0C5DB
:10034000C0C5C0C5C0C5403D490849008D4670477D
:1003500010B50446C046C0462046FFF7FCFE10BD5F
:10036000004870470000002001491820ABBEFEE79E
:10037000260002007047000081B004480068009029
:1003800000980349086001B07047C046380000403B
:100390003C0000407F4908682022104308600E4955
:1003A000304808600D4900200860012081070C4892
:1003B00001600C4A0C48106002200860FFE7012031
:1003C000800700688007002801D5FFE7F7E70120D4
:1003D000810708607047C046400000401800004098
:1003E00014000040340000401100100081B00948A2
:1003F00001686846018000788006002804D5FFE780
:10040000054901200870FFE7684600880349086035
:1004100001B0704738200040900000203C20004090
:1004200080B55C4908684022104308600C490D48BB
:100430000860032040070C4908600C49022008604E
:10044000FFE70A4800688007002801D5FFE7F8E7C2
:10045000064901200860102000F062FB80BDC04604
:1004600040200040DF2E000014200040002000400B
:1004700081B03749FF2008600F204002CC49086056
:100480001D480178491C01700078042804DBFFE74F
:10049000194900200870FFE71748007800900328EA
:1004A00020D80098810001A040588746BD04000074
:1004B000C7040000D1040000DB040000012040025A
:1004C000264908600FE001208002244908600AE004
:1004D0000120C0022149086005E0012000031F49F6
:1004E000086000E0FFE7044801780448405C0449E4
:1004F000086001B07047C0467800002081000020ED
:1005000024400440B0B5A94AF0201060A549086015
:100510000E49FF2008600E4908600F20400210605D
:10052000A34908600B4D2B680121080203432B608F
:10053000094B18602C6849020C432C601960116843
:100540000143116005490860B0BDC0460440044045
:100550002840044004A0044024A004402460044037
:1005600000F0F4FA0120C003474908607047C04614
:1005700008490868012253051843086006490E20FF
:100580000860064908602B49086812021043086099
:100590007047C04600E005402080014024800140B3
:1005A0000120C0033849086022490868202210430E
:1005B0000860FFE7344800680004002801D4FFE722
:1005C000F8E770470120C0032F49086019490868FF
:1005D000102210430860FFE72B4800680004002841
:1005E00001D4FFE7F8E7704781B001466846017023
:1005F0000121C903244A11600078002806D1FFE7D1
:100600000C49086804221043086005E0094908689D
:10061000022210430860FFE7FFE71B480068000460
:10062000002801D4FFE7F8E703480068C0B201B032
:100630007047C046008001400C80014082B00146F6
:10064000684601700121C9030F4A116000780F4903
:100650000860FFE70C4800680004002801D4FFE7A9
:10066000F8E7094800688007002804D5FFE701A9DA
:100670000020087003E001A901200870FFE701A82D
:10068000007802B07047C0460480014008800140F5
:1006900080B586B003A90020087002A90880414AED
:1006A0001168F020814311603F4A1168FF231B024B
:1006B000994311603D4A1168014311603C4908604B
:1006C000012000F0DFF96E4800680006010F05A860
:1006D00001700078002824D0FFE7344A1168F02028
:1006E000019081431160334A1168FF231B02994333
:1006F00011602C4A1168014311602F4908600120E4
:1007000000F0C0F901992D480068084004A908705C
:1007100005980499084303A908700398C04308701A
:1007200003E003A900200870FFE703A8007824492C
:100730000978884207D0FFE70398214908702149CA
:100740000020087029E01F480078C72824DCFFE754
:100750001C480178491C0170007832281BD1FFE742
:1007600017490B78184A1078434003A8037009789A
:100770001170007800280DD0FFE703A80078104919
:100780000978084205D0FFE703A8007802A908808D
:10079000FFE7FFE7FFE7FFE7FFE702A8008806B0F3
:1007A00080BDC046048004400880044004600440CA
:1007B0002860044008600440288004400060044031
:1007C0007E000020800000207F00002001490B48AF
:1007D000086070472040044001490848086070479D
:1007E00020600440014905480860704720800440AB
:1007F000014902480860704720A00440FF3F000004
:10080000094900200860094A05211160084908606B
:10081000084A0A2111600849086008490860084927
:1008200008600849086070472020044024200440E4
:100830005020044040200440002004400420044094
:1008400014200440902004400B490868012212043F
:100850001043086009490868401C0860322809D123
:10086000FFE7064900200860054908680222504059
:100870000860FFE77047C04610E000E0600000201D
:100880000080044080B586B0714800684006400F83
:10089000049004283CD80498810001A04058874661
:1008A000B5080000D5080000DF080000E7080000D8
:1008B000F1080000654800688007C00F002804D1D7
:1008C000FFE74A494D48086003E048494948086045
:1008D000FFE71EE045497D200002086019E043491A
:1008E0004548086015E041490120C003086010E058
:1008F0003D480068C004C00F002804D1FFE73B4911
:100900003C48086003E0394939480860FFE700E0E7
:10091000FFE75048006807210840039007282DD8BA
:100920000398810001A040588746C0464D09000049
:1009300053090000590900005F0900006509000023
:100940006B09000071090000770900000120059083
:1009500015E00220059012E0042005900FE0082029
:1009600005900CE01020059009E02020059006E09D
:100970004020059003E08020059000E0FFE7059906
:100980001A4802900068FFF70BFC02990860314892
:1009900000680007C00F00280AD0FFE71348019045
:1009A000006840000321FFF7FBFB01990860FFE7A7
:1009B0000E4800681249884204D3FFE712491448E0
:1009C00008600EE0094800680E49884204D3FFE73A
:1009D0000D490E48086003E00B494D480860FFE7E9
:1009E000FFE706B080BDC04604000640640000205A
:1009F0000090D003006CDC020024F400001BB70060
:100A0000016CDC0200366E01002006401900FA5A23
:100A10002900FA5A0D4908680222904308600C49DF
:100A200000200860FFE70A4800684006400F0028E1
:100A300001D0FFE7F7E7074A00201060116808239C
:100A400099431160044908607047C04600000640A1
:100A50000C000640100006403000064080B582B011
:100A60000190FFE70198411E0191002807D0FFE7A0
:100A700029492A480860642000F004F8F2E702B02F
:100A800080BDC04682B0019001990E20484300907D
:100A9000FFE70098411E0091002801D0FFE7F8E72A
:100AA00002B070471C491D48086011490868184A7F
:100AB00010430422904308607047C04680B582B05E
:100AC0000020019001980421884301900198104969
:100AD0000843019001980649009108603D2000F00C
:100AE0000BF800990868034A1043086002B080BD03
:100AF000000001400100FA5A81B0009000980449BA
:100B000008430449086004490448086001B070477C
:100B10000000FA5A080001400C000140AA55FA5A98
:100B200081B001466846017000214056002809D472
:100B3000FFE7684601781F200140012088400249F4
:100B40000860FFE701B0704700E100E0BFF34F8F9E
:100B5000034904480860BFF34F8FFFE700BFFDE77C
:100B60000CED00E00400FA0580B582B001A9088010
:100B7000002000F04FFB0198D749088002B080BDEB
:100B800080B5D548008800280AD1FFE7D34880788F
:100B9000C007002804D1FFE7632000F03BFBFFE71C
:100BA00080BDC04681B0B2480078002803D1FFE77D
:100BB0001720009004E0AE480078401E0090FFE748
:100BC0000098AB490870C5490120C87001B0704752
:100BD00081B0A7484078002803D1FFE73B20009070
:100BE00004E0A3484078401E0090FFE70098A04929
:100BF0004870BA490120C87001B0704781B09B4865
:100C00000078002803D1FFE71720009004E0974800
:100C10000078401E0090FFE700989449087001B0EA
:100C20007047C04681B091484078002803D1FFE763
:100C30003B20009004E08D484078401E0090FFE784
:100C400000988A49487001B07047C04680B582B0AC
:100C5000A02001AA00920223194600F01DF8009876
:100C6000007817280CDCFFE701A840783B2807DC58
:100C7000FFE701987E49087001A84078487008E0B5
:100C80007B490720087000204870F4490120C87093
:100C9000FFE702B080BDC04610B586B005AC019438
:100CA000207004A80170039202A80380FFF778FC6B
:100CB00001980078FE210840FFF7C0FC012803D10D
:100CC000FFE7FFF77FFC31E004A80078FFF7B6FCF0
:100CD000012803D1FFE7FFF775FC27E0FFF760FC71
:100CE00005A8007801210843FFF7A8FC012803D1DB
:100CF000FFE7FFF767FC19E0FFE702A8008802287A
:100D00000CDBFFE70020FFF76FFC03994A1C0392FE
:100D100008700298401E02A90880EEE70120FFF744
:100D200063FC03990870FFF74DFCFFE706B010BDA8
:100D300080B582B0E148017801AA11704078507006
:100D4000A0200223194600F005F80A20FFF786FECE
:100D500002B080BD10B586B005AC0194207004A827
:100D60000170039202A80380FFF71AFC0198007833
:100D7000FFF764FC012803D1FFE7FFF723FC21E024
:100D800004A80078FFF75AFC012803D1FFE7FFF71A
:100D900019FC17E0FFE702AA1088411E1180002805
:100DA0000DD0FFE70398411C03910078FFF746FC44
:100DB000012803D1FFE7FFF705FC03E0EBE7FFF7AE
:100DC00001FCFFE706B010BD80B5BD488078C007C4
:100DD000002820D1FFE7BA48007800281BD1FFE7A0
:100DE000CC480078B5490978884213D1FFE7C94853
:100DF0004078B249497888420CD1FFE7C5488078ED
:100E0000002807D1FFE7F349012088701949002025
:100E10000860FFE7FFE7EF488078C007002823D08D
:100E2000FFE714480168491C016000687D21C90082
:100E3000FFF7B6F988087C2804D8FFE7002000F007
:100E4000E9F903E0632000F0E5F9FFE709480068ED
:100E50000949884207D3FFE7ED49002088706320E5
:100E600000F0D8F9FFE7FFE780BDC0467900002019
:100E7000680000206C0000208813000059480168B9
:100E8000491C0160006880087D2809D3FFE75549A7
:100E900000200860DE494A78012090434870FFE74F
:100EA0007047C04680B50C480088012813DBFFE777
:100EB00009480188491E0180008800280AD1FFE7FF
:100EC000D3488078C007002804D1FFE7632000F0F2
:100ED000A1F9FFE7FFE780BD700000208800002037
:100EE00080B586B0014605A801800088002801D1A0
:100EF000FFE774E0059804A90870C5488078C0072A
:100F0000002806D0FFE7C24900208870FFF738FEAE
:100F100065E04B208000FFF727FEBD4900204860B8
:100F200048703049086004A80078039011280CD05C
:100F3000FFE7039818280ED0FFE7039828282BD046
:100F4000FFE70398812803D048E000F045F946E028
:100F500000F016F943E0AE480078401E02900328E6
:100F600018D80298810001A0405887467D0F0000E4
:100F7000830F0000890F00008F0F000000F0A2F81F
:100F800009E000F0B3F806E000F06CF803E000F0D0
:100F90007FF800E0FFE722E09D480078401E0190C6
:100FA000032819D80198810001A040588746C046FF
:100FB000C10F0000C70F0000CD0F0000D30F0000CD
:100FC000FFF71CFE09E0FFF72DFE06E0FFF7EAFD44
:100FD00003E0FFF7FDFD00E0FFE700E0FFE706B0FC
:100FE00080BDC0467400002089480078032811DBCA
:100FF000FFE787484078C007002805D0FFE70120B9
:1010000000020849086004E0012000020449086069
:10101000FFE704E00120000201490860FFE7704794
:1010200024A0044028A0044080B579480078002816
:1010300013D0FFE776484168491C41604068084981
:10104000884209D3FFE772490020087048604B20AE
:101050008000FFF789FDFFE7FFE780BD88000020E3
:101060003075000081B015480078172803DBFFE7D2
:101070000020009004E011480078401C0090FFE739
:1010800000980E490870FA490120C87001B07047F5
:1010900081B0F94840783B2803DBFFE7002000904F
:1010A00004E0F5484078401C0090FFE70098F249C2
:1010B0004870EF490120C87001B0704768000020F7
:1010C0008800002081B0EB480078172803DBFFE799
:1010D0000020009004E0E7480078401C0090FFE703
:1010E0000098E449087001B07047C04681B0E148FB
:1010F00040783B2803DBFFE70020009004E0DD4858
:101100004078401C0090FFE70098FB49487001B010
:101110007047C0467900002080B584B0002003905D
:1011200000F0D6F8FFE71349134808601348007829
:1011300000281DD0FFE7114900200870FFF7A8FA2A
:1011400002A901910880FFF793F901980088FFF741
:10115000C7FE00F095F9FFF737FEFFF7A3FE00F09A
:10116000F1F8FFF761FFFFF789FEFFF73DFFFFE7AB
:10117000D9E7C0460C000140AA55FA5A9000002059
:1011800080B582B0DA4800780190002804D0FFE7EB
:101190000198032806D009E0FFF758FDD449032041
:1011A000087012E0D249042008700EE0D0480021F7
:1011B0000170C078C007002806D0FFE7FFF7B8FD30
:1011C000CB490020C870FFE7FFE7C949002048600D
:1011D00002B080BD8800002081B0C5480078009032
:1011E000002804D0FFE70098012804D007E0C04998
:1011F0000120087007E0BE490220087003E0BC49E6
:1012000000200870FFE7BA490020486001B070472D
:101210008800002082B0014601A8017069461022B2
:101220000A7000780978884211DAFFE701A800788F
:1012300041000B48415A0B480160006840080749CB
:1012400008600120810700220A60086003E003496A
:1012500000200860FFE702B07047C0461800004059
:10126000FC1400004000004081B001466846017057
:101270000078C007002806D0FFE780494878802220
:101280001043487005E07D4948787F22104048703F
:10129000FFE701B07047C04683B002AA107001A8F2
:1012A00001700078092806DCFFE701A801780748EB
:1012B000405C009002E000200090FFE7009802A947
:1012C0000A786E49885403B07047C0461C15000068
:1012D00080B582B0FFF79EFBFFF7D4FAFFF790FAD4
:1012E000134908680122019290430860FFF70AF948
:1012F0001049FF200860104908680F22520210436D
:101300000860FFF7DBFBFFF745F8019A0B49086817
:101310001043022290430860FFF72AF908490A2087
:101320000860FFF793FCFFF77BF802B080BDC04672
:101330001C000640044004400460044000200440B7
:101340004020044080B58CB06948007803280BDB4E
:10135000FFE7494801780BAA117040780AA9087084
:1013600009A9002008700AE0634801780BAA1170EF
:1013700040780AA9087009A901200870FFE70BA8A6
:10138000039000780A210591FEF70AFF014600202C
:10139000FFF782FF039805990078FEF701FF01200F
:1013A0000690FFF779FF05990AA804900078FEF7E8
:1013B000F7FE01460220FFF76FFF049805990078B9
:1013C000FEF7EEFE0320FFF767FF069909A80078F5
:1013D0000840FFF749FF46480078002845D0FFE75E
:1013E00043484078C00700283FD0FFE740480178D5
:1013F00001200129029007D0FFE73D480078C01E78
:10140000414248410290FFE702990120014008AAA9
:101410001170374909780229019007D0FFE7344855
:101420000078001F414248410190FFE701980121E7
:10143000084007A9087008A80078C007002808D04D
:10144000FFE70E490020087048788022104048705D
:10145000FFE707A80078C007002805D0FFE7074985
:1014600000208870C870FFE7FFE70CB080BDC04661
:101470008800002079000020680000208100002002
:101480001B480078002801D0FFE72FE019480188A9
:10149000491C018000887D21C900884226DBFFE7C6
:1014A00014490020088014488178491C8170807894
:1014B0003C281ADBFFE71048002181704178491C65
:1014C000417040783C280FDBFFE70B48002141705A
:1014D0000178491C01700078182804DBFFE70649F1
:1014E00000200870FFE7FFE7FFE7FFE77047C0460F
:1014F000880000207C000020790000209359D04F04
:10150000194700009477886AE85E00009A9F378E3A
:101510003C86000000002FB3000000003F065B4F38
:10152000666D7D077F6F0000381500000000002009
:081530009802000020010000F8
:020000040000FA
:047FFC005555AAAA83
:040000050000016591
:00000001FF
